{
  "_format": "hh-sol-artifact-1",
  "contractName": "RecordRegistry",
  "sourceName": "contracts/RecordRegistry.sol",
  "abi": [
    {
      "anonymous": false,
      "inputs": [
        {
          "indexed": false,
          "internalType": "uint256",
          "name": "id",
          "type": "uint256"
        },
        {
          "indexed": false,
          "internalType": "address",
          "name": "owner",
          "type": "address"
        },
        {
          "indexed": false,
          "internalType": "string",
          "name": "data",
          "type": "string"
        }
      ],
      "name": "RecordCreated",
      "type": "event"
    },
    {
      "anonymous": false,
      "inputs": [
        {
          "indexed": false,
          "internalType": "uint256",
          "name": "id",
          "type": "uint256"
        },
        {
          "indexed": false,
          "internalType": "string",
          "name": "newData",
          "type": "string"
        }
      ],
      "name": "RecordUpdated",
      "type": "event"
    },
    {
      "inputs": [
        {
          "internalType": "string",
          "name": "_data",
          "type": "string"
        }
      ],
      "name": "createRecord",
      "outputs": [],
      "stateMutability": "nonpayable",
      "type": "function"
    },
    {
      "inputs": [
        {
          "internalType": "uint256",
          "name": "_id",
          "type": "uint256"
        }
      ],
      "name": "getRecord",
      "outputs": [
        {
          "internalType": "uint256",
          "name": "",
          "type": "uint256"
        },
        {
          "internalType": "string",
          "name": "",
          "type": "string"
        },
        {
          "internalType": "address",
          "name": "",
          "type": "address"
        },
        {
          "internalType": "uint256",
          "name": "",
          "type": "uint256"
        }
      ],
      "stateMutability": "view",
      "type": "function"
    },
    {
      "inputs": [],
      "name": "recordCount",
      "outputs": [
        {
          "internalType": "uint256",
          "name": "",
          "type": "uint256"
        }
      ],
      "stateMutability": "view",
      "type": "function"
    },
    {
      "inputs": [
        {
          "internalType": "uint256",
          "name": "",
          "type": "uint256"
        }
      ],
      "name": "records",
      "outputs": [
        {
          "internalType": "uint256",
          "name": "id",
          "type": "uint256"
        },
        {
          "internalType": "string",
          "name": "data",
          "type": "string"
        },
        {
          "internalType": "address",
          "name": "owner",
          "type": "address"
        },
        {
          "internalType": "uint256",
          "name": "timestamp",
          "type": "uint256"
        }
      ],
      "stateMutability": "view",
      "type": "function"
    },
    {
      "inputs": [
        {
          "internalType": "uint256",
          "name": "_id",
          "type": "uint256"
        },
        {
          "internalType": "string",
          "name": "_newData",
          "type": "string"
        }
      ],
      "name": "updateRecord",
      "outputs": [],
      "stateMutability": "nonpayable",
      "type": "function"
    }
  ],
  "bytecode": "0x6080604052348015600f57600080fd5b50610d578061001f6000396000f3fe608060405234801561001057600080fd5b50600436106100575760003560e01c806303e9e6091461005c5780631c6314661461008f57806334461067146100ab578063900407bc146100de578063db70504b146100fc575b600080fd5b610076600480360381019061007191906105a4565b610118565b60405161008694939291906106b1565b60405180910390f35b6100a960048036038101906100a49190610832565b610260565b005b6100c560048036038101906100c091906105a4565b610363565b6040516100d594939291906106b1565b60405180910390f35b6100e661043b565b6040516100f3919061088e565b60405180910390f35b610116600480360381019061011191906108a9565b610441565b005b6000606060008060008060008781526020019081526020016000206040518060800160405290816000820154815260200160018201805461015890610921565b80601f016020809104026020016040519081016040528092919081815260200182805461018490610921565b80156101d15780601f106101a6576101008083540402835291602001916101d1565b820191906000526020600020905b8154815290600101906020018083116101b457829003601f168201915b505050505081526020016002820160009054906101000a900473ffffffffffffffffffffffffffffffffffffffff1673ffffffffffffffffffffffffffffffffffffffff1673ffffffffffffffffffffffffffffffffffffffff168152602001600382015481525050905080600001518160200151826040015183606001519450945094509450509193509193565b3373ffffffffffffffffffffffffffffffffffffffff1660008084815260200190815260200160002060020160009054906101000a900473ffffffffffffffffffffffffffffffffffffffff1673ffffffffffffffffffffffffffffffffffffffff1614610303576040517f08c379a00000000000000000000000000000000000000000000000000000000081526004016102fa9061099e565b60405180910390fd5b8060008084815260200190815260200160002060010190816103259190610b6a565b507f1cbdc1f5cc23b0267e7b11c6580bf9dd18d2b28313a50ea572a09a46b65057d58282604051610357929190610c3c565b60405180910390a15050565b600060205280600052604060002060009150905080600001549080600101805461038c90610921565b80601f01602080910402602001604051908101604052809291908181526020018280546103b890610921565b80156104055780601f106103da57610100808354040283529160200191610405565b820191906000526020600020905b8154815290600101906020018083116103e857829003601f168201915b5050505050908060020160009054906101000a900473ffffffffffffffffffffffffffffffffffffffff16908060030154905084565b60015481565b6001600081548092919061045490610c9b565b9190505550604051806080016040528060015481526020018281526020013373ffffffffffffffffffffffffffffffffffffffff1681526020014281525060008060015481526020019081526020016000206000820151816000015560208201518160010190816104c59190610b6a565b5060408201518160020160006101000a81548173ffffffffffffffffffffffffffffffffffffffff021916908373ffffffffffffffffffffffffffffffffffffffff160217905550606082015181600301559050507f99a9454438287bd513ed7da46fc0ff0cabc6b573eeafb583a59e01bc2e52ef90600154338360405161054f93929190610ce3565b60405180910390a150565b6000604051905090565b600080fd5b600080fd5b6000819050919050565b6105818161056e565b811461058c57600080fd5b50565b60008135905061059e81610578565b92915050565b6000602082840312156105ba576105b9610564565b5b60006105c88482850161058f565b91505092915050565b6105da8161056e565b82525050565b600081519050919050565b600082825260208201905092915050565b60005b8381101561061a5780820151818401526020810190506105ff565b60008484015250505050565b6000601f19601f8301169050919050565b6000610642826105e0565b61064c81856105eb565b935061065c8185602086016105fc565b61066581610626565b840191505092915050565b600073ffffffffffffffffffffffffffffffffffffffff82169050919050565b600061069b82610670565b9050919050565b6106ab81610690565b82525050565b60006080820190506106c660008301876105d1565b81810360208301526106d88186610637565b90506106e760408301856106a2565b6106f460608301846105d1565b95945050505050565b600080fd5b600080fd5b7f4e487b7100000000000000000000000000000000000000000000000000000000600052604160045260246000fd5b61073f82610626565b810181811067ffffffffffffffff8211171561075e5761075d610707565b5b80604052505050565b600061077161055a565b905061077d8282610736565b919050565b600067ffffffffffffffff82111561079d5761079c610707565b5b6107a682610626565b9050602081019050919050565b82818337600083830152505050565b60006107d56107d084610782565b610767565b9050828152602081018484840111156107f1576107f0610702565b5b6107fc8482856107b3565b509392505050565b600082601f830112610819576108186106fd565b5b81356108298482602086016107c2565b91505092915050565b6000806040838503121561084957610848610564565b5b60006108578582860161058f565b925050602083013567ffffffffffffffff81111561087857610877610569565b5b61088485828601610804565b9150509250929050565b60006020820190506108a360008301846105d1565b92915050565b6000602082840312156108bf576108be610564565b5b600082013567ffffffffffffffff8111156108dd576108dc610569565b5b6108e984828501610804565b91505092915050565b7f4e487b7100000000000000000000000000000000000000000000000000000000600052602260045260246000fd5b6000600282049050600182168061093957607f821691505b60208210810361094c5761094b6108f2565b5b50919050565b7f4e6f7420746865206f776e657200000000000000000000000000000000000000600082015250565b6000610988600d836105eb565b915061099382610952565b602082019050919050565b600060208201905081810360008301526109b78161097b565b9050919050565b60008190508160005260206000209050919050565b60006020601f8301049050919050565b600082821b905092915050565b600060088302610a207fffffffffffffffffffffffffffffffffffffffffffffffffffffffffffffffff826109e3565b610a2a86836109e3565b95508019841693508086168417925050509392505050565b6000819050919050565b6000610a67610a62610a5d8461056e565b610a42565b61056e565b9050919050565b6000819050919050565b610a8183610a4c565b610a95610a8d82610a6e565b8484546109f0565b825550505050565b600090565b610aaa610a9d565b610ab5818484610a78565b505050565b5b81811015610ad957610ace600082610aa2565b600181019050610abb565b5050565b601f821115610b1e57610aef816109be565b610af8846109d3565b81016020851015610b07578190505b610b1b610b13856109d3565b830182610aba565b50505b505050565b600082821c905092915050565b6000610b4160001984600802610b23565b1980831691505092915050565b6000610b5a8383610b30565b9150826002028217905092915050565b610b73826105e0565b67ffffffffffffffff811115610b8c57610b8b610707565b5b610b968254610921565b610ba1828285610add565b600060209050601f831160018114610bd45760008415610bc2578287015190505b610bcc8582610b4e565b865550610c34565b601f198416610be2866109be565b60005b82811015610c0a57848901518255600182019150602085019450602081019050610be5565b86831015610c275784890151610c23601f891682610b30565b8355505b6001600288020188555050505b505050505050565b6000604082019050610c5160008301856105d1565b8181036020830152610c638184610637565b90509392505050565b7f4e487b7100000000000000000000000000000000000000000000000000000000600052601160045260246000fd5b6000610ca68261056e565b91507fffffffffffffffffffffffffffffffffffffffffffffffffffffffffffffffff8203610cd857610cd7610c6c565b5b600182019050919050565b6000606082019050610cf860008301866105d1565b610d0560208301856106a2565b8181036040830152610d178184610637565b905094935050505056fea264697066735822122099bb5bdb49b3c6c46525a3cbc4acf42b9e60f6c49ce1a7c453d9a8ac5a5768c164736f6c634300081c0033",
  "linkReferences": {},
  "deployedLinkReferences": {}
}